S00D0000646973636F2E7372656305
S113000010C02AC029C028C027C026C025C024C0CB
S113001023C022C021C020C01FC01EC01DC01CC0E0
S11300201BC011241FBECFE5D2E0DEBFCDBF10E060
S1130030A0E6B0E0E4EAF0E002C005900D92A0363C
S1130040B107D9F720E0A0E6B0E001C01D92A036C8
S1130050B207E1F702D024C0D3CF19D080E090E0FA
S113006019D02FEF89E698E1215080409040E1F7C4
S113007000C0000081E090E00DD02FEF89E698E108
S1130080215080409040E1F700C00000E7CFBA9AC9
S1130090C2980895892B11F4C2980895C29A0895BC
S10700A0F894FFCFFE
S9030000FC
