:1000000010C02AC029C028C027C026C025C024C0CF
:1000100023C022C021C020C01FC01EC01DC01CC0E4
:100020001BC011241FBECFE5D2E0DEBFCDBF10E064
:10003000A0E6B0E0ECECF1E002C005900D92A6362F
:10004000B107D9F720E0A6E6B0E001C01D92A736BF
:10005000B207E1F702D0B8C0D3CF1BD037D0AED0B3
:1000600056D03BD061E081E057D061E080E054D0D1
:10007000C1E036D08823E9F380916400833018F022
:10008000C0936400F6CF809164008F5F809364001A
:10009000F0CFBA9A8AB3806C8ABB80B7806280BF87
:1000A00080B7836080BF83B7826083BF8FB5806A6B
:1000B0008FBD8FB58F7B8FBD8FB581608FBD8EB5A6
:1000C00088608EBD8EB581608EBD08953E983F9844
:1000D00086B1866086B9379A0895D398DB9A0895D9
:1000E00080916600B39909C091E0811190E0992355
:1000F00021F081E080936600089596B3892383FF01
:1001000004C01092660080E0089580E0089587B3EF
:10011000836087BBC1980895623028F070E016169E
:10012000170614F1089548B321E030E0B90102C088
:10013000660F771F8A95E2F7CB01942F982B98BB17
:100140007FEFE9EF20E07150E0402040E1F700C090
:10015000000098B38095892388BB8FE19EE40197C6
:10016000F1F700C00000089521E030E0A90102C0CD
:10017000440F551F8A95E2F7CA01809520E030E0D0
:1001800098B3942B98BB5FEF99EFE0E0515090400B
:10019000E040E1F700C0000098B3982398BB5FE708
:1001A0009AE1E6E051509040E040E1F700C00000E5
:1001B0002F5F3F4F261737071CF308958AB38660D9
:0C01C0008ABBD99AD9980895F894FFCF13
:0601CC000100000001002B
:00000001FF
