:1000000010C02AC029C028C027C026C025C024C0CF
:1000100023C022C021C020C01FC01EC01DC01CC0E4
:100020001BC011241FBECFE5D2E0DEBFCDBF10E064
:10003000A0E6B0E0E2EAF6E002C005900D92A63636
:10004000B107D9F720E0A6E6B0E001C01D92A937BC
:10005000B207E1F7F1D023C3D3CFCF92DF92EF9273
:10006000FF920F931F93CF93DF9300D000D000D067
:10007000CDB7DEB7CDD18FE19EE40197F1F700C097
:1000800000008E010F5F1F4F6E0197E0C90ED11C5B
:100090007801CDD1F801819391938F01BCD10C15DA
:1000A0001D05B9F74D815E81569547955695479543
:1000B0006B817C81769567957695679589819A8124
:1000C0009695879596958795CAD180916B002091DA
:1000D000600030916100811137C0A901445151097C
:1000E00089819A814817590760F08B819C81481754
:1000F000590748F08D819E8148175907D0F422E0B6
:1001000003C020E001C021E0909361008093600073
:1001100010926A001092690081E080936B00209336
:100120006800822F90E0909367008093660081E0E2
:1001300074C02739310508F46FC02150310930935C
:1001400061002093600068C0E0916800F0E0EE0F6D
:10015000FF1FEE0DFF1D8081918165E070E07AD276
:100160008217930718F410926B0056C080916900B3
:1001700090916A00019690936A00809369008430A0
:10018000910508F449C06091660070916700A0E095
:100190004A2F50E046175707F8F4FA01EE0FFF1FF9
:1001A000EE0DFF1D0190F081E02D2E173F0790F41A
:1001B000F0936100E093600010926A001092690071
:1001C00081E080936B00A093680050936700409398
:1001D000660023C0AF5FDCCF8130F1E09F07E0F025
:1001E0006230710518F482E090E012C0813042E084
:1001F000940790F0253B310530F0215031093093C0
:100200006100209360008130944030F083E090E002
:10021000909367008093660080E026960FB6F8946E
:10022000DEBF0FBECDBFDF91CF911F910F91FF9029
:10023000EF90DF90CF90089567D090D0E2D0C8D0F3
:10024000A6D0A8D080E0C9D0C1E0D2E0A6D0882353
:1002500029F0D093630080E0C0D002C0C093630057
:100260009FD0882351F080916400833018F0C093B0
:10027000640003C08F5F80936400809163008130CD
:1002800031F0823019F7C0936200E7DEDFCF74D01F
:10029000853011F085E069D080916400823079F07A
:1002A0008330C1F0813091F698D069D04FEF5FEF85
:1002B0006FEF7FEF969587959695879517C082E0AB
:1002C0008CD05DD0BC0176956795769567954FEF9C
:1002D0005FEF0AC083E081D052D0AC0156954795BC
:1002E000569547956FEF7FEF8FEF9FEFCED0AECF54
:1002F00098B321E030E0082E01C0220F0A94EAF7FB
:100300002095292328BB0895BA9A8AB3806C8ABBAA
:1003100080B7806280BF80B7806880BF80B783600D
:1003200080BF83B7826083BF8FB580688FBD8FB574
:100330008F7B8FBD8FB581608FBD8EB588608EBD80
:100340008EB581608EBD0895813029F018F082301D
:1003500019F0089566BF6CBF6ABD08953E983F9836
:1003600086B1866086B9379A08953699FECF97B1DF
:100370009770982B97B9089587B187700895369A2A
:100380003699FECF84B125B190E0922B0895D39891
:10039000DB9A0895D498DC9A089589B38071089502
:1003A00029B380916C0091E023FB222720F92917C3
:1003B00031F0811104C090936C0081E00895CB9BD3
:1003C00005C0811101C0089510926C0080E008956D
:1003D00087B3836087BBC0980895813049F028F0C7
:1003E000823049F0833051F0089580E081DF04C00D
:1003F00080E07EDF04C0C09A81E07ACFC09AC19AC3
:1004000008958AB386608ABBD098DA9ADA980895FC
:10041000DA9ADA980895D99AD9982FEF80E792E07E
:10042000215080409040E1F700C00000089587B15E
:10043000877011F080E099DFA2CFCF93DF93D82FA0
:10044000C62F82DFED2FF0E0EE0FFF1FED58FF4FBC
:100450006C2F70E071836083DF91CF9108951F93BB
:10046000CF93DF931F92CDB7DEB7162F682F80E0B2
:100470004983E3DF612F81E0E0DF4981642F82E07F
:100480000F90DF91CF911F91D8CFAF92BF92CF92B3
:10049000DF92EF92FF920F931F93CF93DF937C0134
:1004A0008B01EA018F3F4FEF940721F4E0906D003C
:1004B000F0906E000F3F5FEF150721F400916F0081
:1004C00010917000CF3F8FEFD80721F4C0917100D9
:1004D000D09172000115110569F44C2F6C2F8C2FEF
:1004E000BEDFD0936E00C0936D00D0937000C093B8
:1004F0006F00A1C0C7016BE270E0BDD09B01CB01D2
:100500006BE270E0A7D0A701481B590BCA0166E057
:1005100070E0A0D06C01EFEFF0E0BF01601B710B49
:10052000CE0198D0B92EC801B60194D0A92FB0E061
:10053000BF016A1B7B0BCE018DD0A92EBF016C19A8
:100540007D09C80187D0A92FB0E0BF016A1B7B0BD2
:10055000CE0180D0D92E22303105A9F1A0F4211589
:10056000310511F12130310509F04DC04B2D6C2FB3
:100570008A2D75DFA092730010927400D0937600DC
:10058000C09375001DC02330310561F12430310561
:10059000D1F54C2F6B2D892F62DFD0927300109212
:1005A0007400B092750028C04B2D692F8C2F57DF37
:1005B000D0937400C0937300D092750010927600AF
:1005C000B09277002EC0492F6C2F8B2D48DFB09250
:1005D000730010927400D0937600C0937500D0928F
:1005E00077001FC04C2F6A2D8B2D39DFB09273001E
:1005F00010927400A092750010927600D09378004B
:10060000C093770010C04A2D6B2D8C2F28DFD0931C
:100610007400C0937300B092750010927600A0929F
:10062000770010927800F0926E00E0926D001093C7
:10063000700000936F00D0937200C0937100DF913F
:10064000CF911F910F91FF90EF90DF90CF90BF90CF
:10065000AF9008950024552704C0080E591F880F35
:10066000991F009729F076956795B8F37105B9F74A
:10067000802D952F0895AA1BBB1B51E107C0AA1F0F
:10068000BB1FA617B70710F0A61BB70B881F991F33
:100690005A95A9F780959095BC01CD010895F894DD
:0206A000FFCF8A
:0606A2003200010101001D
:00000001FF
