:1000000010C007C129C028C027C026C025C024C0F1
:1000100023C022C021C020C01FC01EC01DC01CC0E4
:100020001BC011241FBECFE5D2E0DEBFCDBF10E064
:10003000A0E6B0E0EEE8FAE002C005900D92A83626
:10004000B107D9F720E0A8E6B0E001C01D92AB37B8
:10005000B207E1F710D119C5D3CFCF92DF92EF925B
:10006000FF920F931F93CF93DF9300D000D000D067
:10007000CDB7DEB732D28FE19EE40197F1F700C031
:1000800000008E010F5F1F4F6E0197E0C90ED11C5B
:1000900078013DD2F801819391938F012DD20C15F7
:1000A0001D05B9F780916D002091640030916500C5
:1000B000811137C0A9014451510989819A8148179A
:1000C000590760F08B819C814817590748F08D8152
:1000D0009E8148175907D0F422E003C020E001C0F8
:1000E00021E0909365008093640010926C00109260
:1000F0006B0081E080936D0020936A00822F90E076
:10010000909369008093680081E074C027393105BD
:1001100008F46FC0215031093093650020936400CA
:1001200068C0E0916A00F0E0EE0FFF1FEE0DFF1DCA
:100130008081918165E070E061D38217930718F4A4
:1001400010926D0056C080916B0090916C000196EA
:1001500090936C0080936B008430910508F449C043
:100160006091680070916900A0E04A2F50E0461746
:100170005707F8F4FA01EE0FFF1FEE0DFF1D019077
:10018000F081E02D2E173F0790F4F0936500E09387
:10019000640010926C0010926B0081E080936D00FF
:1001A000A0936A00509369004093680023C0AF5F3A
:1001B000DCCF8130F1E09F07E0F06230710518F488
:1001C00082E090E012C0813042E0940790F0253B3D
:1001D000310530F0215031093093650020936400DF
:1001E0008130944030F083E090E0909369008093F8
:1001F000680080E026960FB6F894DEBF0FBECDBF34
:10020000DF91CF911F910F91FF90EF90DF90CF90F2
:1002100008951F920F920FB60F9211242F933F93C0
:100220004F935F936F937F938F939F93AF93BF93FE
:10023000EF93FF93B2990EC080916700833010F066
:1002400081E003C0809167008F5F80936700809199
:1002500067000AD1FF91EF91BF91AF919F918F916C
:100260007F916F915F914F913F912F910F900FBEB2
:100270000F901F9018959CD0BDD029D1F2D0E5D019
:100280007894C5E0D0E002E010E080916700823011
:1002900011F18330E9F18130C1F7B3D0CED07C01C8
:1002A00082E0AFD0CAD06C0183E0ABD0C6D0AC0145
:1002B00056954795569547955527B6017695679576
:1002C000769567957727C701969587959695879533
:1002D00090E047D1DACF82E094D0AFD07C0183E0C8
:1002E00090D0ABD0AC01569547955695479555277C
:1002F0006FEF7FEF8FEF9FEF34D1C7019695879512
:1003000096958795F4D1882309F4BFCF75D2BDCFD8
:10031000909171008091700098130FC0E7D2BE01D8
:1003200092D2880F880F8093700010927100DED2F5
:10033000B80189D28F5F809366008091660081301A
:1003400019F08230B1F023C088DE8823B9F0CDD116
:100350002FEF81EE94E0215080409040E1F700C003
:10036000000040E050E060E070E080E090E0F9D014
:100370000EC073DE882311F0B8D109C080916E00E1
:1003800090916F00019690936F0080936E00809122
:100390006E0090916F008130984020F08AE0A7D1E4
:1003A00081112AD2809171008F5F809371006DCF8F
:1003B0008AB3806E8ABB80B7806280BF80B783605B
:1003C00080BF83B7826083BF8FB5806A8FBD8FB5D2
:1003D0008F7B8FBD8FB581608FBD8EB588608EBDE0
:1003E0008EB581608EBD089588BD08958ABD08953B
:1003F0008CBF08953E983F9886B1866086B9379A3B
:100400000895813049F028F0823059F0833071F03E
:10041000089587B1807C0FC087B1817C87B9389AF5
:10042000089587B1827C87B9399A089587B1837C12
:1004300087B987B1836087B90895369A3699FECF18
:1004400084B125B190E0922B0895BA98C29A85B7ED
:10045000826085BF85B78E7F85BF8BB780648BBF79
:100460000895D49ADC980895823020F020E030E09E
:1004700090E012C0DC9A2FEF49EF50E0215040404D
:100480005040E1F700C00000DC988FE19EE4019746
:10049000F1F700C00000089528173907BCF4DC9A72
:1004A0004FEF59EF60E0415050406040E1F700C02D
:1004B0000000DC984FE75AE166E041505040604050
:1004C000E1F700C000002F5F3F4FE6CF089587B3EC
:1004D000836087BBC09AC0980895C09A87EC90E06B
:1004E0000197F1F700C00000C0988FE891E00197F4
:1004F000F1F700C000000895C19A85E08A95F1F7F0
:100500000000C1988AE68A95F1F700C0089580E05E
:1005100078DF93CFCF93C82F67DFC0937800CF9158
:100520000895CF93C82F62DFC0937900CF910895CB
:10053000CF93C82F5DDFC0937A00CF910895CF93FA
:10054000DF9300D0CDB7DEB74A836983E3DF6981EB
:10055000862FE7DF4A81842F0F900F90DF91CF9194
:10056000E7CFCF92DF92EF92FF920F931F93CF933B
:10057000DF938F3F2FEF920721F40091750010E079
:1005800001C08C016F3F2FEF720721F4E0917600DC
:10059000F0E001C0FB014F3F2FEF520721F4C09163
:1005A0007700D0E001C0EA01019619F400917500CE
:1005B00010E06F3F7F4F19F4E0917600F0E0309744
:1005C00059F44C2F6C2F8C2FBADFC0937500C09359
:1005D0007600C093770080C0C8016BE270E01FD145
:1005E0009B01CB016BE270E009D1A801481B590BBC
:1005F000CA0166E070E002D17C01AFEFB0E0CD014E
:100600008E1B9F0BBE01FAD0D92ECF01B701F6D0B9
:10061000092F10E0CD01801B910BBE01EFD0C92E38
:10062000BD016E197F09CF01E9D0E92FF0E0CD01BE
:100630008E1B9F0BBE01E2D0192F2230310561F1D4
:1006400078F421153105E9F021303105D9F54D2D2A
:100650006C2F8C2D74DFC0927500C093760019C08A
:100660002330310521F12430310561F54C2F6D2DFA
:10067000892F65DF10937500D0927600C0937700C4
:100680002BC04D2D692F8C2F5ADFC093750010930E
:100690007600D092770020C0492F6C2F8D2D4FDF30
:1006A000D0927500C09376001093770015C04C2F40
:1006B0006C2D8D2D44DFD0927500C0927600C093D2
:1006C00077000AC04C2D6D2D8C2F39DFC09375003B
:1006D000D0927600C0927700DF91CF911F910F9159
:1006E000FF90EF90DF90CF90089500D1FECFBF92A2
:1006F000CF92DF92EF92FF920F931F93CF93DF93EE
:1007000000D000D000D0CDB7DEB71A8219821C828B
:100710001B821E821D82A2E7B0E045E750E0BE01C9
:100720006F5F7F4F2D91FA019191AF0130E0291B4E
:100730003109FB0121933193BF01F0E0A537BF07D9
:1007400089F7E82FF0E089819A81BF017CD09B0175
:10075000CB010196039790F44091740050E06091B2
:10076000730070E08091720090E0FBDE10927200E6
:10077000109273001092740081E02EC040917700B7
:100780008D819E8100917600CB80DC80B0907500D9
:100790001616170694F4E42EF12C55D0E61AF70A33
:1007A00010E0C601B9014FD0061B170B8B2D90E04E
:1007B000A701B8018E1B9F0B0DC045D07B01E40E35
:1007C000F11CC601B9013FD0600F711DA701CF0117
:1007D0008B0D911DC6DE80E026960FB6F894DEBF25
:1007E0000FBECDBFDF91CF911F910F91FF90EF9082
:1007F000DF90CF90BF90089579D0FECF0024552789
:1008000004C0080E591F880F991F009729F076958C
:100810006795B8F37105B9F7802D952F0895AA1B38
:10082000BB1B51E107C0AA1FBB1FA617B70710F0DB
:10083000A61BB70B881F991F5A95A9F7809590950D
:10084000BC01CD01089597FB072E16F4009406D045
:1008500077FD08D0E4DF07FC05D03EF49095819544
:100860009F4F0895709561957F4F0895A0E0B0E087
:10087000EBE3F4E089C0EC01688179818A819B8196
:10088000611571058105910521F464E279ED8BE52F
:1008900097E02DE133EF41E050E037D049015A01B4
:1008A00027EA31E440E050E04CD069017A01C5010B
:1008B000B4012CEE34EF4FEF5FEF43D089019A0182
:1008C000D701C601800F911FA21FB31FB7FF03C03E
:1008D0000197A109B04888839983AA83BB839F7736
:1008E000CDB7DEB7ECE06CC0C1DF089580E690E0E4
:1008F000BDDF0895A0E0B0E08093600090936100B8
:10090000A0936200B09363000895052E97FB16F440
:1009100000940FD057FD05D068D007FC02D046F4F4
:1009200008C050954095309521953F4F4F4F5F4FF0
:10093000089590958095709561957F4F8F4F9F4F4B
:10094000089568940013E894A0E0B0E0E9EAF4E0C8
:100950001DC0EFEFE7F959016A015E23550FEE085C
:10096000FE2C87019B01AC019E23990F660B762F0D
:10097000CB015DD0CDB7DEB7EAE024C02F923F9225
:100980004F925F926F927F928F929F92AF92BF929F
:10099000CF92DF92EF92FF920F931F93CF93DF934B
:1009A000CDB7DEB7CA1BDB0B0FB6F894DEBF0FBEA8
:1009B000CDBF09942A88398848885F846E847D84F5
:1009C0008C849B84AA84B984C884DF80EE80FD80F7
:1009D0000C811B81AA81B981CE0FD11D0FB6F8946D
:1009E000DEBF0FBECDBFED010895A1E21A2EAA1BF6
:1009F000BB1BFD010DC0AA1FBB1FEE1FFF1FA217CF
:100A0000B307E407F50720F0A21BB30BE40BF50BCB
:100A1000661F771F881F991F1A9469F76095709554
:100A2000809590959B01AC01BD01CF010895DF93A6
:100A3000CF939F92A0E49A2E0024D001E001F00110
:100A400016950795F794E794D794C794B794A7940D
:100A500048F41068A20FB31FC41FD51FE61FF71F6D
:100A6000081E191E220F331F441F551F661F771FB4
:100A7000881F991F9A9421F79D01AE01BF01C00103
:0E0A800011249F90CF91DF910895F894FFCF3D
:080A8E0001000000320001012B
:00000001FF
