S00D0000646973636F2E7372656305
S113000010C02AC029C028C027C026C025C024C0CB
S113001023C022C021C020C01FC01EC01DC01CC0E0
S11300201BC011241FBECFE5D2E0DEBFCDBF10E060
S1130030A0E6B0E0E8E1FBE002C005900D92AE3727
S1130040B107D9F720E0AEE7B0E001C01D92A939AD
S1130050B207E1F7C6D05EC5D3CFCF92DF92EF925D
S1130060FF920F931F93CF93DF9300D000D000D063
S1130070CDB7DEB7DA9A2AE12A95F1F700C0DA980B
S113008045ED4A95F1F700008E010F5F1F4F6E0199
S113009087E0C80ED11C7801D998E0E6EA95F1F71B
S11300A032D2F801819391938F01D99AF8E7FA95A6
S11300B0F1F70C151D0581F72091820080916400F1
S11300C09091650021112AC029813A8182179307F2
S11300D080F02B813C818217930768F0813921E0FD
S11300E0920708F46EC001979093650080936400B2
S11300F068C080E001C081E0309365002093640013
S1130100109281001092800091E09093820090E020
S113011090937F0080937E0081E054C060917E00C4
S113012070917F00FB01EE0FFF1FEE0DFF1D40815C
S11301305181440F551F440F551F20918000309169
S113014081004817590758F4203941E0340738F042
S113015010928200109281001092800032C02F5FB2
S11301603F4F30938100209380002C3BE2E03E0718
S113017040F1A0E04A2F50E046175707E8F4FA018F
S1130180EE0FFF1FEE0DFF1D0190F081E02D8E1785
S11301909F0780F4F0936500E0936400109281005F
S11301A01092800081E08093820050937F004093FE
S11301B07E0008C0AF5FDECF2130304110F01092D6
S11301C0820080E026960FB6F894DEBF0FBECDBF46
S11301D0DF91CF911F910F91FF90EF90DF90CF901F
S11301E00895F2D035D188D16ED14CD14ED180E072
S11301F06FD1D098D89880E035D1FF24F39432E0C1
S1130200E32E00E018E0C3E0D0E042D1882329F0D7
S1130210E092670080E05CD102C0F09267003BD1BD
S1130220882351F080916800833018F0F0926800C0
S113023003C08F5F8093680080916700813019F05C
S1130240823091F1E2CF13D1853011F085E00AD1EB
S113025080916800823079F08330C1F08130A9F652
S113026037D108D143E059ED63E079ED9695879550
S11302709695879517C082E02BD1FCD0BC0176956A
S113028067957695679543E059ED0AC083E020D1E0
S1130290F1D0AC01569547955695479563E079EDB5
S11302A083E099ED5ED1B1CF909186008091850075
S11302B0981310C060D3BE010BD30296880F880F29
S11302C0809385001092860056D3BE0101D38F5FC0
S11302D080936600809166008230A1F0833069F1DA
S11302E0813009F051C0B9DE882309F444C08091FB
S11302F086008F5F8093860019D21092840010923A
S1130300830042C0AADE8823B1F1809186008F5F0A
S113031080938600109284001092830007D28FE5A8
S11303209AEE0197F1F700C0000040E050E063E06E
S113033079ED83E099ED15D127C08FDE8823D9F0BC
S1130340809186008F5F80938600109284001092C3
S1130350830080918700882351F040E050E063E0FF
S113036079ED83E099EDFDD0109287000DC0F092F5
S11303708700DCD109C080918300909184000196AC
S113038090938400809383008091830090918400F3
S11303908115984008F439CF1093840000938300AA
S11303A080E290E019D2882309F42FCFE7D12DCF32
S11303B098B321E030E0082E01C0220F0A94EAF736
S11303C02095292328BB0895BA9A8AB3806C8ABBE6
S11303D080B7806280BF80B7806880BF80B7836049
S11303E080BF83B7826083BF8FB580688FBD8FB5B0
S11303F081608FBD8EB588608EBD8EB581608EBDE7
S11304000895813079F018F08230B9F0089580B7FA
S1130410643020F0806880BF66BF08958F7780BF06
S113042016BE089580B7643020F0806280BF6CBF30
S113043008958F7D80BF1CBE08958FB5643020F071
S113044080688FBD6ABD08958F778FBD1ABC0895EB
S1130450D598D0983E983F9886B1866086B93098F2
S1130460379A08953699FECF877087B9089587B172
S113047087700895369A3699FECF84B125B190E0FD
S1130480922B0895D398DB9A0895D498DC9A089512
S113049089B38071089529B38091880091E023FB8A
S11304A0222720F9291731F0811104C09093880084
S11304B081E00895CB9B05C0811101C0089510927D
S11304C0880080E0089587B3836087BBC09808954F
S11304D0813049F028F0823049F0833051F008959A
S11304E080E066DF04C080E063DF04C0C09A81E07E
S11304F05FCFC09AC19A08958AB386608ABBDA9A9C
S1130500DA98D998089587B1877011F080E0AADF4E
S1130510B1CFCF93DF93D82FC62F73DFED2FF0E049
S1130520EE0FFF1FED56FF4F6C2F70E07183608359
S1130530DF91CF9108951F93CF93DF931F92CDB78F
S1130540DEB7162F682F80E04983E3DF612F81E057
S1130550E0DF4981642F82E00F90DF91CF911F91FA
S1130560D8CFAF92BF92CF92DF92EF92FF920F93C8
S11305701F93CF93DF937C018B01EA01833049ED14
S1130580940721F4E0907800F0907900033059ED5D
S1130590150721F400917A0010917B00C33089ED96
S11305A0D80721F4C0917C00D0917D00011511057C
S11305B069F44C2F6C2F8C2FBEDFD0937900C0933D
S11305C07800D0937B00C0937A00A1C0C7016BE28E
S11305D070E06AD19B01CB016BE270E054D1A701BA
S11305E0481B590BCA0166E070E04DD16C01EFEF76
S11305F0F0E0BF01601B710BCE0145D1B92EC801DB
S1130600B60141D1A92FB0E0BF016A1B7B0BCE011B
S11306103AD1A92EBF016C197D09C80134D1A92F83
S1130620B0E0BF016A1B7B0BCE012DD1D92E223045
S11306303105A9F1A0F42115310511F1213031055D
S113064009F04DC04B2D6C2F8A2D75DFA0929300BD
S113065010929400D0939600C09395001DC023304F
S1130660310561F124303105D1F54C2F6B2D892FE3
S113067062DFD092930010929400B092950028C04B
S11306804B2D692F8C2F57DFD0939400C093930088
S1130690D092950010929600B09297002EC0492FE8
S11306A06C2F8B2D48DFB092930010929400D0935E
S11306B09600C0939500D09297001FC04C2F6A2DCE
S11306C08B2D39DFB092930010929400A092950084
S11306D010929600D0939800C093970010C04A2DB2
S11306E06B2D8C2F28DFD0939400C0939300B0928D
S11306F0950010929600A092970010929800F092A4
S11307007900E092780010937B0000937A00D093F4
S11307107D00C0937C00DF91CF911F910F91FF90DA
S1130720EF90DF90CF90BF90AF900895CF93DF9379
S1130730C4E0D0E020D1BE01CBD0FC0163E070E086
S1130740A2D0DC01A759BF4F2C9130E080917800F2
S1130750909179002817390769F31296AC91B0E0AB
S1130760CF0163E070E08FD087599F4FFC01618116
S113077070E0AD01C901DF91CF91F3CECF93DF9348
S1130780C4E0D0E0F8D0BE01A3D063E070E07BD039
S1130790DC01A759BF4F2C9130E0809178009091F3
S11307A079002817390771F312964C911297FD01BD
S11307B0818130938E0020938D00282F30E0309378
S11307C0900020938F00842F90E090939200809368
S11307D09100DF91CF91089520917C0030917D00AC
S11307E0409191005091920024173507E8F48091CC
S11307F08B0090918C008430910530F40196909395
S11308008C0080938B0039C010928C0010928B0066
S1130810A9014F5F5F4F60918F00709190008091AC
S11308208D0090918E0028C02091890030918A001B
S11308302817390738F42F5F3F4F30938A002093ED
S113084089001BC010928A001092890020918D00AB
S113085030918E00E0917800F0917900CF010196FB
S113086060918F0070919000821793072CF0CF0154
S11308700197281739071CF474DE80E00895C90134
S113088070DE81E008950024552704C0080E591F26
S1130890880F991F009729F076956795B8F371052D
S11308A0B9F7802D952F0895AA1BBB1B51E107C0F2
S11308B0AA1FBB1FA617B70710F0A61BB70B881FEC
S11308C0991F5A95A9F780959095BC01CD0108957B
S11308D097FB072E16F4009406D077FD08D0E4DFCA
S11308E007FC05D03EF4909581959F4F089570952F
S11308F061957F4F0895A0E0B0E0E0E8F4E089C09E
S1130900EC01688179818A819B816115710581057A
S1130910910521F464E279ED8BE597E02DE133EF65
S113092041E050E037D049015A0127EA31E440E080
S113093050E04CD069017A01C501B4012CEE34EFCA
S11309404FEF5FEF43D089019A01D701C601800FB1
S1130950911FA21FB31FB7FF03C00197A109B0489D
S113096088839983AA83BB839F77CDB7DEB7ECE0F6
S11309706CC0C1DF089580E690E0BDDF0895A0E07B
S1130980B0E08093600090936100A0936200B09304
S113099063000895052E97FB16F400940FD057FDBD
S11309A005D068D007FC02D046F408C050954095A5
S11309B0309521953F4F4F4F5F4F08959095809507
S11309C0709561957F4F8F4F9F4F089568940013E2
S11309D0E894A0E0B0E0EEEEF4E01DC0EFEFE7F93C
S11309E059016A015E23550FEE08FE2C87019B0115
S11309F0AC019E23990F660B762FCB015DD0CDB74A
S1130A00DEB7EAE024C02F923F924F925F926F923A
S1130A107F928F929F92AF92BF92CF92DF92EF928A
S1130A20FF920F931F93CF93DF93CDB7DEB7CA1B0B
S1130A30DB0B0FB6F894DEBF0FBECDBF09942A8836
S1130A40398848885F846E847D848C849B84AA84DE
S1130A50B984C884DF80EE80FD800C811B81AA816B
S1130A60B981CE0FD11D0FB6F894DEBF0FBECDBF36
S1130A70ED010895A1E21A2EAA1BBB1BFD010DC0B6
S1130A80AA1FBB1FEE1FFF1FA217B307E407F5073A
S1130A9020F0A21BB30BE40BF50B661F771F881F16
S1130AA0991F1A9469F760957095809590959B01AC
S1130AB0AC01BD01CF010895DF93CF939F92A0E4D1
S1130AC09A2E0024D001E001F00116950795F794C1
S1130AD0E794D794C794B794A79448F41068A20FE6
S1130AE0B31FC41FD51FE61FF71F081E191E220FB0
S1130AF0331F441F551F661F771F881F991F9A9421
S1130B0021F79D01AE01BF01C00111249F90CF9137
S10B0B10DF910895F894FFCF72
S1130B18010000003200010101FAFFFF64FFFFC871
S1110B28FFFF28FFFF50FFFF0000FA00FA0055
S9030000FC
