S00D0000646973636F2E7372656305
S113000010C02AC029C028C027C026C025C024C0CB
S113001023C022C021C020C01FC01EC01DC01CC0E0
S11300201BC011241FBECFE5D2E0DEBFCDBF10E060
S1130030A0E6B0E0E6E5F2E002C005900D92A43639
S1130040B107D9F720E0A4E6B0E001C01D92A736BD
S1130050B207E1F702D0FDC0D3CF18D041D0CFD042
S113006080D079D07BD040E060E080E0DCD085E0D7
S11300703ED069D0AC01569547955695479560E0BA
S113008080E0D1D061E080E071D0F3CFBA9A8AB336
S1130090806C8ABB80B7806280BF80B7806880BF75
S11300A080B7836080BF83B7826083BF8FB5806869
S11300B08FBD8FB58F7B8FBD8FB581608FBD8EB5A2
S11300C088608EBD8EB581608EBD0895813029F023
S11300D018F0823019F0089566BF6CBF6ABD0895A8
S11300E03E983F9886B1866086B9379A08958230E3
S11300F0A1F028F4882349F0813051F00895843028
S1130100B9F080F08530C1F0089587B1807C19C0C2
S113011087B1817C87B9389A089587B1827C87B981
S1130120399A089587B1837C87B987B1836009C000
S113013087B1847C87B93A9A87B1857C87B987B1BE
S1130140856087B90895369A3699FECF84B125B172
S113015090E0922B0895D398DB9A0895D498DC9A72
S1130160089587B3836087BBC1980895623060F0B7
S113017021E030E001C0220F8A95EAF7422F209552
S113018080E090E070E01DC098B321E030E001C051
S1130190220F8A95EAF7922B98BB4FEF59EF80E034
S11301A0415050408040E1F700C0000088B32095E2
S11301B0282328BB8FE19EE40197F1F700C00000DB
S11301C0089586179707D4F438B3342B38BBEFEF70
S11301D039EF50E0E15030405040E1F700C00000FA
S11301E038B3322338BBEFE73AE156E0E150304010
S11301F05040E1F700C000000196E3CF08958AB3B0
S113020086608ABBD098DA9ADA980895CF93DF9300
S1130210D82FC62F5BDFED2FF0E0EC59FF4FC083E2
S1130220DF91CF9108951F93CF93DF931F92CDB7A2
S1130230DEB7162F682F80E04983E8DF612F81E065
S1130240E5DF4981642F82E00F90DF91CF911F9108
S1090250DDCFF894FFCF9E
S1070256010000009F
S9030000FC
