S00D0000646973636F2E7372656305
S113000010C02AC029C028C027C026C025C024C0CB
S113001023C022C021C020C01FC01EC01DC01CC0E0
S11300201BC011241FBECFE5D2E0DEBFCDBF10E060
S1130030A0E6B0E0E6EEF0E002C005900D92A43632
S1130040B107D9F720E0A4E6B0E001C01D92A436C0
S1130050B207E1F702D045C0D3CF0FD02BD03BD0AD
S113006035D02FD030D02FEF80E792E02150804060
S11300709040E1F700C00000F6CFBA9A8AB3806CD2
S11300808ABB80B7806280BF80B7836080BF83B73C
S1130090826083BF8FB5806A8FBD8FB58F7B8FBD24
S11300A08FB581608FBD8EB588608EBD8EB5816041
S11300B08EBD08953E983F9886B1866086B9379A7A
S11300C00895D3980895D498DC9A089587B38360EB
S11300D087BBC19808958AB386608ABBD99AD99898
S10900E00895F894FFCF1F
S10700E60100000011
S9030000FC
