S00D0000646973636F2E7372656305
S113000010C02AC029C028C027C026C025C024C0CB
S113001023C022C021C020C01FC01EC01DC01CC0E0
S11300201BC011241FBECFE5D2E0DEBFCDBF10E060
S1130030A0E6B0E0EEE0F8E002C005900D92A8362C
S1130040B107D9F720E0A8E6B0E001C01D92A737B8
S1130050B207E1F702D0D9C3D3CF90D0B9D07BD1C6
S113006018D1F6D0F8D080E062D140E060E080E0C2
S11300708AD185E0B6D048E750E06AEF70E086E9BF
S113008090E097D1FF24F39432E0E32EC5E0D0E072
S113009002E010E0E3D0882319F0E092650002C08A
S11300A0F092650080E043D1DCD0882351F0809148
S11300B06600833018F0F092660003C08F5F80936F
S11300C0660080916500813019F0823069F1E2CFD9
S11300D080916600823079F08330C1F08130D1F6AE
S11300E026D1AED04FEF5FEF6FEF7FEF96958795F8
S11300F09695879517C082E01AD1A2D0BC01769557
S11301006795769567954FEF5FEF0AC083E00FD14F
S113011097D0AC0156954795569547956FEF7FEF6D
S11301208FEF9FEF46D1B6CF61E080E0B7D09091DA
S113013069008091680098130FC098D2BE0143D221
S1130140880F880F80936800109269008FD2B801DD
S11301503AD28F5F80936400809169008F5F8093AF
S1130160690098CF98B321E030E0082E01C0220F37
S11301700A94EAF72095292328BB0895BA9A8AB3EA
S1130180806C8ABB80B7806280BF80B7806880BF84
S113019080B7836080BF83B7826083BF8FB5806878
S11301A08FBD8FB58F7B8FBD8FB581608FBD8EB5B1
S11301B088608EBD8EB581608EBD0895813029F032
S11301C018F0823019F0089566BF6CBF6ABD0895B7
S11301D0D598D0983E983F9886B1866086B9379A6C
S11301E008953699FECF8230A1F028F4882349F08F
S11301F0813051F008958430B9F080F08530C9F031
S1130200089587B1807C1AC087B1817C87B9389AF8
S1130210089587B1827C87B9399A089587B1837C20
S113022087B987B183600AC087B1847C87B93A9A59
S1130230089587B1857C87B987B1856087B90895AA
S1130240369A3699FECF84B125B190E0922B089569
S1130250D398DB9A0895D498DC9A089589B3807171
S1130260089529B380916A0091E023FB222720F9A5
S1130270291731F0811104C090936A0081E0089538
S1130280CB9B05C0811101C0089510926A0080E0E3
S1130290089587B3836087BBC0980895623060F087
S11302A021E030E001C0220F8A95EAF7422F209521
S11302B080E090E070E01DC098B321E030E001C020
S11302C0220F8A95EAF7922B98BB4FEF59EF80E003
S11302D0415050408040E1F700C0000088B32095B1
S11302E0282328BB8FE19EE40197F1F700C00000AA
S11302F0089586179707D4F438B3342B38BBEFEF3F
S113030039EF50E0E15030405040E1F700C00000C8
S113031038B3322338BBEFE73AE156E0E1503040DE
S11303205040E1F700C000000196E3CF089581300A
S113033049F028F0823049F0833051F0089580E08C
S113034011DF04C080E00EDF04C0C09A81E00ACF50
S1130350C09AC19A08958AB386608ABBDA9ADA98F9
S11303600895CF93DF93D82FC62F28DFED2FF0E029
S1130370EE0FFF1FEF58FF4F6C2F70E07183608307
S1130380DF91CF9108951F93CF93DF931F92CDB741
S1130390DEB7162F682F80E04983E3DF612F81E009
S11303A0E0DF4981642F82E00F90DF91CF911F91AC
S11303B0D8CFAF92BF92CF92DF92EF92FF920F937A
S11303C01F93CF93DF937C018B01EA018F3F4FEFA3
S11303D0940721F4E0906B00F0906C000F3F5FEF06
S11303E0150721F400916D0010916E00CF3F8FEF3F
S11303F0D80721F4C0916F00D09170000115110548
S113040069F44C2F6C2F8C2FBEDFD0936C00C093FB
S11304106B00D0936E00C0936D00A1C0C7016BE266
S113042070E0BDD09B01CB016BE270E0A7D0A701C7
S1130430481B590BCA0166E070E0A0D06C01EFEFD5
S1130440F0E0BF01601B710BCE0198D0B92EC8013A
S1130450B60194D0A92FB0E0BF016A1B7B0BCE017B
S11304608DD0A92EBF016C197D09C80187D0A92F91
S1130470B0E0BF016A1B7B0BCE0180D0D92E2230A5
S11304803105A9F1A0F42115310511F1213031050F
S113049009F04DC04B2D6C2F8A2D75DFA092710091
S11304A010927200D0937400C09373001DC0233067
S11304B0310561F124303105D1F54C2F6B2D892F95
S11304C062DFD092710010927200B092730028C063
S11304D04B2D692F8C2F57DFD0937200C09371007E
S11304E0D092730010927400B09275002EC0492F00
S11304F06C2F8B2D48DFB092710010927200D09354
S11305007400C0937300D09275001FC04C2F6A2DE5
S11305108B2D39DFB092710010927200A09273009B
S113052010927400D0937600C093750010C04A2DC9
S11305306B2D8C2F28DFD0937200C0937100B09282
S1130540730010927400A092750010927600F092DD
S11305506C00E0926B0010936E0000936D00D093DA
S11305607000C0936F00DF91CF911F910F91FF90A6
S1130570EF90DF90CF90BF90AF900895002455275F
S113058004C0080E591F880F991F009729F076950B
S11305906795B8F37105B9F7802D952F0895AA1BB7
S11305A0BB1B51E107C0AA1FBB1FA617B70710F05A
S11305B0A61BB70B881F991F5A95A9F7809590958C
S11305C0BC01CD01089597FB072E16F4009406D0C4
S11305D077FD08D0E4DF07FC05D03EF490958195C3
S11305E09F4F0895709561957F4F0895A0E0B0E006
S11305F0EBEFF2E089C0EC01688179818A819B810B
S1130600611571058105910521F464E279ED8BE5AD
S113061097E02DE133EF41E050E037D049015A0132
S113062027EA31E440E050E04CD069017A01C50189
S1130630B4012CEE34EF4FEF5FEF43D089019A0100
S1130640D701C601800F911FA21FB31FB7FF03C0BC
S11306500197A109B04888839983AA83BB839F77B4
S1130660CDB7DEB7ECE06CC0C1DF089580E690E062
S1130670BDDF0895A0E0B0E0809360009093610036
S1130680A0936200B09363000895052E97FB16F4BF
S113069000940FD057FD05D068D007FC02D046F473
S11306A008C050954095309521953F4F4F4F5F4F6F
S11306B0089590958095709561957F4F8F4F9F4FCA
S11306C0089568940013E894A0E0B0E0E9E6F3E04C
S11306D01DC0EFEFE7F959016A015E23550FEE08DB
S11306E0FE2C87019B01AC019E23990F660B762F8C
S11306F0CB015DD0CDB7DEB7EAE024C02F923F92A4
S11307004F925F926F927F928F929F92AF92BF921D
S1130710CF92DF92EF92FF920F931F93CF93DF93C9
S1130720CDB7DEB7CA1BDB0B0FB6F894DEBF0FBE26
S1130730CDBF09942A88398848885F846E847D8473
S11307408C849B84AA84B984C884DF80EE80FD8075
S11307500C811B81AA81B981CE0FD11D0FB6F894EB
S1130760DEBF0FBECDBFED010895A1E21A2EAA1B74
S1130770BB1BFD010DC0AA1FBB1FEE1FFF1FA2174D
S1130780B307E407F50720F0A21BB30BE40BF50B4A
S1130790661F771F881F991F1A9469F760957095D3
S11307A0809590959B01AC01BD01CF010895DF9325
S11307B0CF939F92A0E49A2E0024D001E001F0018F
S11307C016950795F794E794D794C794B794A7948C
S11307D048F41068A20FB31FC41FD51FE61FF71FEC
S11307E0081E191E220F331F441F551F661F771F33
S11307F0881F991F9A9421F79D01AE01BF01C00182
S111080011249F90CF91DF910895F894FFCFBB
S10B080E0100000001010100DA
S9030000FC
