:1000000010C02AC029C028C027C026C025C024C0CF
:1000100023C022C021C020C01FC01EC01DC01CC0E4
:100020001BC011241FBECFE5D2E0DEBFCDBF10E064
:10003000A0E6B0E0E8EAF0E002C005900D92A43638
:10004000B107D9F720E0A4E6B0E001C01D92A436C4
:10005000B207E1F702D026C0D3CF8AB386608ABB4D
:10006000D098D898DA9A8AE18A95F1F700C0DA98A0
:10007000C19AE7ECF0E03197F1F700C0000087E0AB
:10008000D998E7ECF0E03197F1F700C00000D99A79
:10009000E7ECF0E03197F1F700C00000815081F704
:0800A000D998DECFF894FFCFE0
:0400A8000100000053
:00000001FF
